:100000000EC0FFC219C326C025C089C223C022C0AA
:1000100021C020C01FC01EC01DC01CC01BC0112499
:100020001FBECFE5D2E0DEBFCDBF10E0A0E6B0E05E
:10003000E6E0F7E002C005900D92AA3FB107D9F7BC
:1000400011E0AAEFB0E001C01D92A732B107E1F7BD
:10005000D3D157C301C382E089BF93E09ABD91E039
:1000600093BF12BE19BC18BA97BB18BA9BE090BDDB
:1000700090E898B985BF80E68BBF86E085BB8FEF9F
:100080008093050110920601809307018093080177
:1000900080E090E02FEFFC01EB5FFE4F24830196A0
:1000A0008E319105C1F7789408958AB580688ABD2C
:1000B0008AB58F7B8ABD08951092FB001092FC00D8
:1000C0001092FD001092FE0025B7277E25BFAC01DF
:1000D00042955295507F5427407F5427481B590B17
:1000E00060E070E08091FB009091FC00A091FD0029
:1000F000B091FE00481759076A077B07A0F085B743
:10010000806285BF889585B78F7D85BF8091FB0014
:100110009091FC00A091FD00B091FE004817590796
:100120006A077B0760F70895CF93DF93EB018C306C
:1001300078F4E82FEE0FFF0BEF59FF4F808180938B
:100140000401818180930301B0DFCE01B5DF49C096
:10015000863F49F482E48093040110920301A5DFF5
:10016000CE01AADF3EC0833F49F481E280930401BF
:10017000109203019ADFCE019FDF33C0853FC1F4A7
:1001800082E280930401109203018FDFCE0163E0CD
:1001900070E072D2EB01CB018FDF8BE28093040120
:1001A000CE018ADF83E380930401CE0185DF19C08D
:1001B000843FB9F483E3809304011092030175DF57
:1001C000CE0163E070E058D2EB01CB0175DF8BE22A
:1001D00080930401CE0170DF82E280930401CE019E
:1001E0006BDF8AB58F778ABD8AB58F7B8ABDC09851
:1001F0001092040110920301DF91CF910895CF93E3
:10020000DF939DEF980F973080F590E00397BC0146
:1002100062957295707F7627607F7627681B790BD1
:10022000660F771F605070404EE150E089E091E02A
:1002300037D2C0E0D0E0FE01EB5FFE4F24812223E5
:1002400084F0FE01EB5FFE4F24812C3054F4FE015C
:10025000EB5FFE4F848164E670E066DF84E690E049
:100260002BDF2196CE31D10531F7DF91CF91089563
:100270009DEF980F9730A0F490E00397BC01629532
:100280007295707F7627607F7627681B790B660FE3
:10029000771F605070404EE150E089E091E010D24D
:1002A0000895CF93DF9380910601882341F08091D8
:1002B0000501813021F48AE0809305010BC0809113
:1002C0000601882339F080910501823019F48BE012
:1002D0008093050180910601882371F180910501C9
:1002E00081112AC0809107018823CCF41092070164
:1002F0008FEF8093080180E090E02FEFFC01EB5F2F
:10030000FE4F248301968E319105C1F76CEB72E0AC
:1003100085EF0ADF6CEB72E084EF06DF6AC0C8E0AD
:10032000D1E08881A5DF8FEF88838093070160E2A9
:1003300073E084EFF9DE5DC08091070188230CF43F
:1003400043C0809108018823DCF48091050183304B
:100350006CF0809105018A304CF480910501809306
:10036000080160E273E085EFDFDE43C08FEF80932A
:1003700008018093070168EE73E086EFD5DE39C08F
:10038000809107018E316CF0C8E0D1E0888170DF88
:100390008FEF88838093070160E273E084EFC4DE0F
:1003A00028C0C7E0D1E0E881FF27E7FDF095809104
:1003B0000501EB5FFE4F848364E670E083EFB4DEFB
:1003C00088818F5F888315C080910601882361F042
:1003D00080910501833044F0809105018A3024F436
:1003E000809105010CDF05C08091050164E670E095
:1003F0009BDEDF91CF910895CF93DF9300D01F92C2
:10040000CDB7DEB780E886BD16BC25DE60E070E0C3
:100410008FEF8ADE81E089831A821B820F2EF6E03D
:10042000EF2EF1E0FF2EF02D05E011E0DD24DA944F
:10043000CC24C39486B3869581708093600086B384
:1004400082FB882780F98B839981809160009817BF
:1004500031F18091600081110AC0C092FA00F70169
:100460001082F801108282E390E026DE22C0109212
:10047000FA00F801808118161CF480818B3034F06A
:10048000F801D08282E390E017DE06C0F801808197
:100490008A3009F4108205DFF70110820AC08091CA
:1004A0006000882331F01092FA00F7011082F80101
:1004B000D0828091600089838B818A838091FA0049
:1004C000882309F185B7877E85BF85B7806285BFA0
:1004D000889585B78F7D85BF8091FB009091FC004A
:1004E000A091FD00B091FE0080339547A105B105B4
:1004F00008F4A0CFF701C0821092FA0068EC70E017
:1005000086EF12DE97CF85B7877E806185BF85B77E
:10051000806285BF889585B78F7D85BF8BCF1F9201
:100520000F920FB60F9211242F933F938F939F93A7
:10053000AF93BF93EF93FF9320910401809101014A
:1005400090910201820F911D90930201809301010D
:10055000E0910101F09102013496F695E795F69548
:10056000E795F695E795EF77FF27E758FF4F20814E
:10057000809103018823E9F0309103018091FF000D
:1005800090910001830F911D909300018093FF00D3
:10059000E091FF00F09100013496F695E795F6950D
:1005A000E795F695E795EF77FF27E758FF4F8081AE
:1005B00001C080E0280F982F96959695822F891B71
:1005C00089BD8091FB009091FC00A091FD00B0914D
:1005D000FE000196A11DB11D8093FB009093FC00CD
:1005E000A093FD00B093FE00FF91EF91BF91AF91FA
:1005F0009F918F913F912F910F900FBE0F901F9061
:1006000018951F920F920FB60F9211248F93EF93AC
:10061000FF9380916000811107C01092FA00E5E01D
:10062000F1E080818F5F8083FF91EF918F910F9038
:100630000FBE0F901F9018951F920F920FB60F923A
:1006400011248F9385E88A95F1F700008F910F9020
:100650000FBE0F901F9018951F920F920FB60F921A
:1006600011248F9385E88A95F1F700008F910F9000
:100670000FBE0F901F901895AA1BBB1B51E107C01E
:10068000AA1FBB1FA617B70710F0A61BB70B881F22
:10069000991F5A95A9F780959095BC01CD010895B1
:1006A000DC01CB01FC01E199FECF06C0FFBBEEBB34
:1006B000E09A31960DB20D9241505040B8F708952E
:1006C000DC01A40FB51F4150504040F0CB01840F16
:1006D000951F2E9105D041505040D8F70895262FF0
:1006E000E199FECF9FBB8EBBE09A01970DB2021637
:1006F00039F01CBA2DBB0FB6F894E29AE19A0FBEFE
:060700000895F894FFCFFC
:1007060001573D4F2E572E602E4F32573260324FD3
:1007160038573860384F3D603D404346494C4F524C
:1007260055585B5E606366686A6D6F71737576783F
:10073600797B7C7D7E7E7F7F7F7F7F7F7F7E7E7DD8
:100746007C7B7978767573716F6D6A686663605EB7
:100756005B5855524F4C494643403C393633302D51
:100766002A2724211F1C19171512100E0C0A090717
:10077600060403020101000000000000000101025E
:1007860003040607090A0C0E10121517191C1F215F
:0A07960024272A2D303336393C00A9
:00000001FF
