:100000000EC028C08AC126C025C014C123C022C08A
:1000100021C020C01FC01EC01DC01CC01BC0112499
:100020001FBECFE5D2E0DEBFCDBF10E0A0E6B0E05E
:10003000E8E7F7E002C005900D92A83FB107D9F7B5
:1000400011E0A8EFB0E001C01D92A432B107E1F7C2
:1000500089D290C3D5CF82E089BF83E08ABD81E099
:1000600083BF12BE19BCE8E3F0E0108287BB96E0C4
:1000700090838BE080BD80E888B980E28BBF95BB20
:10008000A2E0B1E08FEFFD0181931082FD01329675
:10009000808313968C9380E090E022E031E04FEF74
:1000A000F901E80FF91F3496408301968E319105CE
:1000B000B9F778940895EAE4F0E08081806880835D
:1000C00080818F7B808308951092FE001092FF0044
:1000D0001092000110920101E5E5F0E02081277EF9
:1000E00020839C0122953295307F3227207F322752
:1000F000281B390B40E050E08091FE009091FF00FA
:10010000A0910001B0910101281739074A075B0748
:10011000A0F0808180628083889580818F7D80833C
:100120008091FE009091FF00A0910001B09101012B
:10013000281739074A075B0760F708950F931F9345
:100140008B018C3090F4E82FFF27E7FDF095EE0F40
:10015000FF1FE052FF4F81918093F80080818093D0
:10016000F900A9DFC801B0DF51C0863F49F482E43D
:100170008093F8001092F9009EDFC801A5DF46C009
:10018000833F49F481E28093F8001092F90093DFF5
:10019000C8019ADF3BC0853FE1F482E28093F8001A
:1001A0001092F90088DFC80163E070E09ED2162F3C
:1001B000072F862F972F88DF8BE28093F800812FFF
:1001C000902F82DF83E38093F800812F902F7CDFD4
:1001D0001DC0843FD9F483E38093F8001092F900A6
:1001E0006ADFC80163E070E080D2162F072F862FE8
:1001F000972F6ADF8BE28093F800812F902F64DFC6
:1002000082E28093F800812F902F5EDFEAE4F0E035
:1002100080818F77808380818F7B8083E8E3F0E02B
:1002200080818E7F80831092F8001092F9001F91D8
:100230000F9108951F920F920FB60F9211242F93D2
:100240003F938F939F93AF93BF93EF93FF9320912F
:10025000F8008091FA009091FB00820F911D90931D
:10026000FB008093FA00E091FA00F091FB003496D5
:10027000F695E795F695E795F695E795F0E0EF7733
:10028000F070E05AFF4F30818091F900882311F41B
:1002900090E01DC02091F9008091FC009091FD003C
:1002A000820F911D9093FD008093FC00E091FC0073
:1002B000F091FD003496F695E795F695E795F6955D
:1002C000E795F0E0EF77F070E05AFF4F9081892FCB
:1002D000830F96959695891B89BD8091FE0090911C
:1002E000FF00A0910001B09101010196A11DB11D77
:1002F0008093FE009093FF00A0930001B093010152
:10030000FF91EF91BF91AF919F918F913F912F916D
:100310000F900FBE0F901F9018951F920F920FB65F
:100320000F9211248F9385E88A95F1F78F910F90A2
:100330000FBE0F901F901895982F83508730A0F410
:10034000892F90E0BC0162957295707F7627607F5F
:100350007627681B790B660F771F6A55704086E019
:1003600091E04EE150E0E5D108950F931F93CF93B4
:10037000DF93982F83508730A8F5892F90E0BC0138
:1003800062957295707F7627607F7627681B790B60
:10039000660F771F6A55704086E091E04EE150E0AD
:1003A000B8D1C0E0D0E002E011E0F801EC0FFD1F91
:1003B00034968081882394F0F801EC0FFD1F349669
:1003C00080818C305CF4F801EC0FFD1F3496808145
:1003D00064E670E0B3DE84E690E076DE2196CE310E
:1003E000D10519F7DF91CF911F910F9108950F93C8
:1003F0001F9380910301882341F080910201813095
:1004000021F48AE0809302010BC0809103018823CC
:1004100039F080910201823019F48BE0809302015F
:10042000809103018823A9F180910201882389F535
:10043000809104018823E4F4E4E0F1E011928FEF6D
:10044000808380E090E022E031E04FEFF901E80F97
:10045000F91F3496408301968E319105B9F785EFE7
:100460006CEB72E06BDE84EF6CEB72E067DE77C002
:1004700005E011E0F80180815FDF8FEFF8018083F4
:1004800001501040F801808384EF60E273E056DE93
:1004900066C08091040188230CF44CC08091050152
:1004A0008823ECF480910201833074F08091020182
:1004B0008A3054F4E2E0F1E080813396808385EF66
:1004C00060E273E03BDE4BC0E5E0F1E08FEF80835C
:1004D0003197808386EF68EE73E030DE40C0809114
:1004E00004018E318CF005E011E0F801808124DFF9
:1004F0008FEFF801808301501040F801808384EF72
:1005000060E273E01BDE2BC004E011E0F8018081A3
:10051000992787FD909532972081E80FF91F34962F
:10052000208383EF64E670E009DEF80180818F5F4D
:10053000808315C080910301882361F080910201BE
:10054000833044F0809102018A3024F480910201CA
:100550000CDF05C08091020164E670E0EFDD1F91C1
:100560000F9108956F927F928F929F92AF92BF9258
:10057000CF92DF92EF92FF920F931F93DF93CF936F
:1005800000D000D00F92CDB7DEB7E6E4F0E080E80F
:100590008083108260DD8FEF60E070E0CFDD81E06E
:1005A00089831A828B831C821D820F2EF6E3AF2E65
:1005B000BB24F02D0F2EF2E0EF2EF1E0FF2EF02DF8
:1005C0000F2EF3E0CF2EF1E0DF2EF02D77247A947A
:1005D00066246394460108948108910805E510E0BB
:1005E000F501808190E09695879596958795817025
:1005F0008B83808190E09695879581708C8399811B
:100600008B81981719F18B81882349F46D82F6014B
:100610001082F401108282E390E056DD2FC01D822B
:10062000F701808118161CF480818B3034F0F701BB
:10063000708282E390E048DD06C0F70180818A3055
:1006400009F41082D4DEF601108218C08B81882351
:1006500081F49A818C81981789F08C81882371F0BC
:100660001D82F70180818F5F808382E390E02CDD23
:1006700005C01D82F6011082F40170828B8189838E
:100680008C818A838D81882311F1F8018081877E96
:1006900080838081806280838895F80180818F7D4E
:1006A00080838091FE009091FF00A0910001B091A5
:1006B000010180539547A040B04008F491CFF60166
:1006C00060821D8286EF68EC70E038DD89CFF8012A
:1006D0008081877E8061808380818062808388952D
:1006E000F80180818F7D80837BCFAA1BBB1B51E1EA
:1006F00007C0AA1FBB1FA617B70710F0A61BB70B92
:10070000881F991F5A95A9F780959095BC01CD0136
:100710000895DC01CB01FC01E199FECF06C0FFBBCF
:10072000EEBBE09A31960DB20D9241505040B8F7B1
:100730000895DC01A40FB51F4150504040F0CB019B
:10074000840F951F2E9105D041505040D8F7089541
:10075000262FE199FECF9FBB8EBBE09A01970DB289
:10076000021639F01CBA2DBB0FB6F894E29AE19A42
:080770000FBE0895F894FFCFBD
:10077800404346494C4F5255585B5E606366686A11
:100788006D6F7173757678797B7C7D7E7E7F7F7FD8
:100798007F7F7F7F7E7E7D7C7B7978767573716FB6
:1007A8006D6A686663605E5B5855524F4C494643B4
:1007B800403C393633302D2A2724211F1C191715A0
:1007C80012100E0C0A0907060403020101000000BA
:1007D8000000000001010203040607090A0C0E10BC
:1007E800121517191C1F2124272A2D303336393C9E
:1007F800573D4F2E572E602E4F32573260324F38AA
:08080800573860384F3D603D98
:00000001FF
