:100000000EC08DC1CAC126C025C016C123C022C0E2
:1000100021C020C01FC01EC01DC01CC01BC0112499
:100020001FBECFE5D2E0DEBFCDBF10E0A0E6B0E05E
:10003000EAE1F8E002C005900D92AA3FB107D9F7B6
:1000400011E0AAEFB0E001C01D92A732B107E1F7BD
:10005000D8D2E1C3B1C182E089BF23E02ABD81E0EB
:1000600083BF12BE19BCE8E3F0E0108281E287BBD7
:1000700096E090838BE080BD80E888B925BF80E65C
:100080008BBF95BBA5E0B1E08FEFFD01819310829E
:10009000FD013296808313968C9380E090E025E0FA
:1000A00031E04FEFF901E80FF91F349640830196D4
:1000B0008E319105B9F778940895EAE4F0E08081F3
:1000C0008068808380818F7B8083089510920001F7
:1000D000109201011092020110920301E5E5F0E097
:1000E0002081277E20839C0122953295307F322704
:1000F000207F3227281B390B40E050E0809100011F
:1001000090910101A0910201B091030128173907D4
:100110004A075B07A0F08081806280838895808198
:100120008F7D80838091000190910101A091020157
:10013000B0910301281739074A075B0760F7089554
:100140000F931F938B018C3090F4E82FFF27E7FD6E
:10015000F095EE0FFF1FE052FF4F81918093FA0060
:1001600080818093FB00A9DFC801B0DF51C0863FCA
:1001700049F482E48093FA001092FB009EDFC801EC
:10018000A5DF46C0833F49F481E28093FA001092D4
:10019000FB0093DFC8019ADF3BC0853FE1F482E2B8
:1001A0008093FA001092FB0088DFC80163E070E0E2
:1001B000EDD2162F072F862F972F88DF8BE28093A3
:1001C000FA00812F902F82DF83E38093FA00812F42
:1001D000902F7CDF1DC0843FD9F483E38093FA0025
:1001E0001092FB006ADFC80163E070E0CFD2162FE7
:1001F000072F862F972F6ADF8BE28093FA00812FDB
:10020000902F64DF82E28093FA00812F902F5EDFCF
:10021000EAE4F0E080818F77808380818F7B808328
:10022000E8E3F0E080818E7F80831092FA001092E4
:10023000FB001F910F9108951F920F920FB60F921E
:1002400011242F933F938F939F93AF93BF93EF937B
:10025000FF932091FA008091FC009091FD00820FA5
:10026000911D9093FD008093FC00E091FC00F091C3
:10027000FD003496F695E795F695E795F695E795A2
:10028000F0E0EF77F070E05AFF4F30818091FB0093
:10029000882311F490E01DC02091FB008091FE00A6
:1002A0009091FF00820F911D9093FF008093FE00BC
:1002B000E091FE00F091FF003496F695E795F695F3
:1002C000E795F695E795F0E0EF77F070E05AFF4F8D
:1002D0009081892F830F96959695891B89BD809172
:1002E000000190910101A0910201B09103010196DA
:1002F000A11DB11D8093000190930101A093020103
:10030000B0930301FF91EF91BF91AF919F918F91B6
:100310003F912F910F900FBE0F901F9018951F9235
:100320000F920FB60F9211240F931F932F933F93A9
:100330004F935F936F937F938F939F93AF93BF93ED
:10034000EF93FF938091F8008823A1F410920401A9
:1003500008E310E0F801808180628083E5E0F1E04D
:1003600080818F5F808382E390E0B0DEF80180813E
:100370008F7D8083FF91EF91BF91AF919F918F917E
:100380007F916F915F914F913F912F911F910F91AD
:100390000F900FBE0F901F9018951F920F920FB6DF
:1003A0000F9211248F9385E88A95F1F78F910F9022
:1003B0000FBE0F901F9018951F920F920FB60F92BD
:1003C00011248F9385E88A95F1F78F910F900FBED6
:1003D0000F901F901895982F83508730A0F4892F85
:1003E00090E0BC0162957295707F7627607F7627DA
:1003F000681B790B660F771F6A55704089E091E0A2
:100400004EE150E0E7D108950F931F93CF93DF9310
:10041000982F83508730A8F5892F90E0BC01629512
:100420007295707F7627607F7627681B790B660F41
:10043000771F6A55704089E091E04EE150E0BAD1F3
:10044000C0E0D0E005E011E0F801EC0FFD1F3496AC
:100450008081882394F0F801EC0FFD1F3496808191
:100460008C305CF4F801EC0FFD1F3496808164E65B
:1004700070E066DE84E690E029DE2196CE31D1057B
:1004800019F7DF91CF911F910F9108950F931F934B
:1004900080910601882341F080910501813021F48B
:1004A0008AE0809305010BC080910601882339F012
:1004B00080910501823019F48BE0809305018091D1
:1004C00006018823A9F180910501882389F580918F
:1004D00007018823E4F4E7E0F1E011928FEF8083D5
:1004E00080E090E025E031E04FEFF901E80FF91FDF
:1004F0003496408301968E319105B9F785EF6CEB08
:1005000072E01EDE84EF6CEB72E01ADE77C008E06A
:1005100011E0F80180815FDF8FEFF80180830150E7
:100520001040F801808384EF60E273E009DE66C06A
:100530008091070188230CF44CC080910801882326
:10054000ECF480910501833074F0809105018A30CC
:1005500054F4E5E0F1E080813396808385EF60E23A
:1005600073E0EEDD4BC0E8E0F1E08FEF8083319780
:10057000808386EF68EE73E0E3DD40C08091070181
:100580008E318CF008E011E0F801808124DF8FEFDC
:10059000F801808301501040F801808384EF60E20D
:1005A00073E0CEDD2BC007E011E0F80180819927D0
:1005B00087FD909532972081E80FF91F34962083AC
:1005C00083EF64E670E0BCDDF80180818F5F80839B
:1005D00015C080910601882361F080910501833068
:1005E00044F0809105018A3024F4809105010CDFEC
:1005F00005C08091050164E670E0A2DD1F910F91B6
:1006000008954F925F926F927F928F929F92AF92D6
:10061000BF92CF92DF92EF92FF920F931F93DF93DF
:10062000CF9300D00F92CDB7DEB7E6E4F0E080E8DC
:100630008083108210DD8FEF60E070E081DD81E06B
:1006400089831A821B820F2EF6E3AF2EBB24F02D76
:100650000F2EF5E0EF2EF1E0FF2EF02D0F2EF6E03D
:10066000CF2EF1E0DF2EF02D55245A9444244394EC
:1006700046010894810891080F2EF8E36F2E772425
:10068000F02D05E510E0F501808190E096958795C5
:1006900081708093F800808190E09695879596957B
:1006A000879581708B8399818091F800981751F11B
:1006B0008091F800882371F440920401F6011082C1
:1006C000F401108282E390E001DDF30180818F7DEF
:1006D000808322C010920401F701808118161CF457
:1006E00080818B3034F0F701508282E390E0EEDCC1
:1006F00006C0F70180818A3009F41082C7DEF60156
:1007000010820AC08091F800882331F01092040111
:10071000F6011082F40150828091F80089838B8168
:100720008A8380910401882319F1F8018081877EF2
:1007300080838081806280838895F80180818F7DAD
:1007400080838091000190910101A0910201B091FC
:10075000030180539547A040B04008F494CFF601C0
:1007600040821092040186EF68EC70E0E9DC8BCFE8
:10077000F8018081877E80618083808180628083B0
:100780008895F80180818F7D80837DCFAA1BBB1B5C
:1007900051E107C0AA1FBB1FA617B70710F0A61B81
:1007A000B70B881F991F5A95A9F780959095BC01A2
:1007B000CD010895DC01CB01FC01E199FECF06C01B
:1007C000FFBBEEBBE09A31960DB20D924150504006
:1007D000B8F70895DC01A40FB51F4150504040F018
:1007E000CB01840F951F2E9105D041505040D8F772
:1007F0000895262FE199FECF9FBB8EBBE09A01970B
:100800000DB2021639F01CBA2DBB0FB6F894E29A5D
:0A081000E19A0FBE0895F894FFCF9F
:10081A00404346494C4F5255585B5E606366686A6E
:10082A006D6F7173757678797B7C7D7E7E7F7F7F35
:10083A007F7F7F7F7E7E7D7C7B7978767573716F13
:10084A006D6A686663605E5B5855524F4C49464311
:10085A00403C393633302D2A2724211F1C191715FD
:10086A0012100E0C0A090706040302010100000017
:10087A000000000001010203040607090A0C0E1019
:10088A00121517191C1F2124272A2D303336393CFB
:10089A00573D4F2E572E602E4F32573260324F3807
:0A08AA00573860384F3D603D0100F3
:00000001FF
