:100000000EC00DC32AC326C025C097C223C022C07C
:1000100021C020C01FC01EC01DC01CC01BC0112499
:100020001FBECFE5D2E0DEBFCDBF10E0A0E6B0E05E
:10003000E8E2F7E002C005900D92AA3FB107D9F7B8
:1000400011E0AAEFB0E001C01D92A832B107E1F7BC
:10005000D4D168C312C382E089BF93E09ABD91E016
:1000600093BF12BE19BC18BA91E297BB18BA9BE0B5
:1000700090BD90E898B985BF80E68BBF86E085BBD0
:100080008FEF8093060110920701809308018093FF
:10009000090180E090E02FEFFC01EA5FFE4F24832E
:1000A00001968E319105C1F7789408958AB58068DC
:1000B0008ABD8AB58F7B8ABD08951092FC0010928C
:1000C000FD001092FE001092FF0025B7277E25BF8D
:1000D000AC0142955295507F5427407F5427481BCE
:1000E000590B60E070E08091FC009091FD00A091C0
:1000F000FE00B091FF00481759076A077B07A0F080
:1001000085B7806285BF889585B78F7D85BF8091D3
:10011000FC009091FD00A091FE00B091FF004817F7
:1001200059076A077B0760F70895CF93DF93EB01C8
:100130008C3078F4E82FEE0FFF0BEF59FF4F8081E2
:1001400080930501818180930401B0DFCE01B5DF8A
:1001500049C0863F49F482E480930501109204016E
:10016000A5DFCE01AADF3EC0833F49F481E2809340
:100170000501109204019ADFCE019FDF33C0853F55
:10018000C1F482E280930501109204018FDFCE0159
:1001900063E070E082D2EB01CB018FDF8BE28093D2
:1001A0000501CE018ADF83E380930501CE0185DF5F
:1001B00019C0843FB9F483E38093050110920401D0
:1001C00075DFCE0163E070E068D2EB01CB0175DF33
:1001D0008BE280930501CE0170DF82E280930501FE
:1001E000CE016BDF8AB58F778ABD8AB58F7B8ABDDA
:1001F000C0981092050110920401DF91CF910895EB
:10020000CF93DF939DEF980F973080F590E00397A1
:10021000BC0162957295707F7627607F7627681B98
:10022000790B660F771F605070404EE150E08AE016
:1002300091E047D2C0E0D0E0FE01EA5FFE4F2481AA
:10024000222384F0FE01EA5FFE4F24812C3054F417
:10025000FE01EA5FFE4F848164E670E066DF84E6BB
:1002600090E02BDF2196CE31D10531F7DF91CF9190
:1002700008959DEF980F9730A0F490E00397BC018C
:1002800062957295707F7627607F7627681B790B61
:10029000660F771F605070404EE150E08AE091E0B9
:1002A00020D20895CF93DF9380910701882341F0F6
:1002B00080910601813021F48AE0809306010BC011
:1002C00080910701882339F080910601823019F46A
:1002D0008BE08093060180910701882371F1809162
:1002E000060181112AC0809108018823CCF4109264
:1002F00008018FEF8093090180E090E02FEFFC016F
:10030000EA5FFE4F248301968E319105C1F76CEBB5
:1003100072E085EF0ADF6CEB72E084EF06DF6AC003
:10032000C9E0D1E08881A5DF8FEF88838093080141
:1003300060E273E084EFF9DE5DC0809108018823FC
:100340000CF443C0809109018823DCF480910601FC
:1003500083306CF0809106018A304CF48091060164
:100360008093090160E273E085EFDFDE43C08FEF29
:10037000809309018093080168EE73E086EFD5DE73
:1003800039C0809108018E316CF0C9E0D1E08881DC
:1003900070DF8FEF88838093080160E273E084EF61
:1003A000C4DE28C0C8E0D1E0E881FF27E7FDF09572
:1003B00080910601EA5FFE4F848364E670E083EF7C
:1003C000B4DE88818F5F888315C080910701882300
:1003D00061F080910601833044F0809106018A30FB
:1003E00024F4809106010CDF05C08091060164E6CB
:1003F00070E09BDEDF91CF910895CF93DF9300D023
:100400001F92CDB7DEB780E886BD16BC24DE60E063
:1004100070E08FEF8ADE81E089831A821B820F2EC3
:10042000F7E0EF2EF1E0FF2EF02D06E011E0DD24E5
:10043000DA94BB24B394CB2C86B3869581708093D9
:10044000600086B382FB882780F98B839981809135
:100450006000981739F18091600081110BC0C09243
:10046000FB00F7011082F801108282E390E025DEA4
:10047000C59822C01092FB00F801808118161CF468
:1004800080818B3034F0F801D08282E390E015DE79
:1004900006C0F80180818A3009F4108203DFF70179
:1004A00010820AC080916000882331F01092FB0016
:1004B000F7011082F801D0828091600089838B81DE
:1004C0008A838091FB00882301F185B7877E85BFF1
:1004D00085B7806285BF889585B78F7D85BF809100
:1004E000FC009091FD00A091FE00B091FF008033D0
:1004F0009547A105B105A0F0F701B0821092FB006D
:1005000068EC70E086EF11DE0BC085B7877E8061F6
:1005100085BF85B7806285BF889585B78F7D85BF8C
:100520008091FA00882309F487CFC59A84E190E08E
:10053000C4DDC5981092FA007FCF1F920F920FB6BC
:100540000F9211242F933F938F939F93AF93BF9359
:10055000EF93FF9320910501809102019091030197
:10056000820F911D9093030180930201E09102019B
:10057000F09103013496F695E795F695E795F69593
:10058000E795EF77FF27E758FF4F2081809104011F
:100590008823E9F0309104018091000190910101DC
:1005A000830F911D9093010180930001E091000160
:1005B000F09101013496F695E795F695E795F69555
:1005C000E795EF77FF27E758FF4F808101C080E074
:1005D000280F982F96959695822F891B89BD80911B
:1005E000FC009091FD00A091FE00B091FF000196EB
:1005F000A11DB11D8093FC009093FD00A093FE000F
:10060000B093FF00FF91EF91BF91AF919F918F91B8
:100610003F912F910F900FBE0F901F9018951F9232
:100620000F920FB60F9211248F93EF93FF93809147
:10063000600081110AC01092FB0081E08093FA00F3
:10064000E6E0F1E080818F5F8083FF91EF918F91F1
:100650000F900FBE0F901F9018951F920F920FB61C
:100660000F9211248F9385E88A95F1F700008F91FE
:100670000F900FBE0F901F9018951F920F920FB6FC
:100680000F9211248F9385E88A95F1F700008F91DE
:100690000F900FBE0F901F901895AA1BBB1B51E126
:1006A00007C0AA1FBB1FA617B70710F0A61BB70BE2
:1006B000881F991F5A95A9F780959095BC01CD0187
:1006C0000895DC01CB01FC01E199FECF06C0FFBB20
:1006D000EEBBE09A31960DB20D9241505040B8F702
:1006E0000895DC01A40FB51F4150504040F0CB01EC
:1006F000840F951F2E9105D041505040D8F7089592
:10070000262FE199FECF9FBB8EBBE09A01970DB2D9
:10071000021639F01CBA2DBB0FB6F894E29AE19A92
:080720000FBE0895F894FFCF0D
:1007280001573D4F2E572E602E4F32573260324FB1
:1007380038573860384F3D603D404346494C4F522A
:1007480055585B5E606366686A6D6F71737576781D
:10075800797B7C7D7E7E7F7F7F7F7F7F7F7E7E7DB6
:100768007C7B7978767573716F6D6A686663605E95
:100778005B5855524F4C494643403C393633302D2F
:100788002A2724211F1C19171512100E0C0A0907F5
:10079800060403020101000000000000000101023C
:1007A80003040607090A0C0E10121517191C1F213D
:0A07B80024272A2D303336393C0087
:00000001FF
